:060000008A150A16002813
:10000800FF00030E83018316CA000A08CB008A0189
:1000180070088312A1008B1C28288B10003055060D
:10002800031D182800305406031D2228101401301F
:10003800D4000030D500831601132828831210102D
:10004800D401D501831601178312CE01CF010F0801
:10005800CE00CF014E08CF00CE010E08CE040030EE
:10006800CF048F018E012108F00083164B088A0007
:0A0078004A0E8300FF0E7F0E090000
:100082007B15FB1F4B280130F300F201F101F00157
:08009200FA0DF20CFF3008002A
:0E009A00F201F101F001F801F301003008005D
:0800A800FA1FF21300300800FA
:1000B000FB14FB1F6228FF30F300F200F100F00098
:0800C000FA0DF20CFF300800FC
:1000C8007C189A28FC186B287C19B9286428A00188
:1000D8007208031D8B287108F2007008F100780877
:1000E800F000F801A0157208031D8B287108F200B2
:1000F8007008F100F001A01120167208031D8B286A
:100108007108F200F101A01572080319AD28200842
:10011800F302031D031CB1280310F21B9A28F80DE3
:10012800F00DF10DF20DF30B9128B1287B1B701C1B
:10013800B528F81FB528F00A0319F10A0319F20ABD
:10014800031DB528F20CF10CF00CF30A0319B928B9
:10015800B5280130FC004D20BC280230FC004120AD
:10016800BC280430FC005420BC280830FC0058206F
:04017800000008007B
:10017C00A0017208031DD3287108F2007008F10069
:10018C00F001A0157208031DD3287108F200F101CB
:10019C00A011201672080319E1282008F302031D90
:1001AC00031CE5280310F21BE928F00DF10DF20DEC
:1001BC00F30BD928E5280130FC004D20EC28023047
:0E01CC00FC004120EC280430FC005420080008
:0601DA00FB15FF300800D8
:1001E0008312031372087606A000F801F901730860
:1001F0007702031C13297708FD007308F7007D08B8
:10020000F3007608FD007208F6007D08F20075081C
:10021000FD007108F5007D08F1007408FD0070080C
:10022000F4007D08F000770803198C297208FA00A1
:10023000F217F61777087302F700031946290830FA
:100240007702031C3C29F7007408F9007508F400D4
:100250007608F500F60108307702031C3C29F70008
:100260007408F9007508F400F50108307702031CE2
:100270003C297A08F2008C297708031946290310D3
:10028000F60CF50CF40CF90CF70B3F29A01F5329C1
:10029000F909F409F509F609F90A0319F40A031929
:1002A000F50A0319F60A7908F80774080318740F99
:1002B000F00775080318750FF10776080318760F15
:1002C000F207A01B6C29031C7C29F20CF10CF00C2A
:1002D000F80CF30F7C29882903188029F809F00904
:1002E000F109F209F80A0319F00A0319F10A0319CE
:1002F000F20A8030FA0684290130FC0064208E293D
:100300000230FC0064208E290430FC00BE208E29BF
:100310000830FC0058208E290030FC000000080046
:0C032000831203138030F606F020080062
:10032C00831203137408003A031DB1297508003AAF
:10033C00031DB1297608003A031DB1297708003A4C
:10034C00031DB129FF30F000FF30F1007F30F200C7
:10035C00FF30F3004C2A8312031377080319402A49
:10036C0073080319432A720876068039FA00F217CB
:10037C00F617A0017208F8007108FC007008FD0067
:10038C007408FD027508031C750FFC027608031C2B
:10039C00760FF802F801FC01FD01031CDC290310A7
:1003AC00F20CF10CF00CF80C0130A0007708F30201
:1003BC00031CE6297E302007F3070318462AEB2995
:1003CC007E302007F307031C492A1830FA07FD0D6D
:1003DC00FC0DF80DF00DF10DF20DA00D7408F002EE
:1003EC007508031C750FF1027608031C760FF202D8
:1003FC00760DA004201C042A7D140F2A7408F00723
:10040C0075080318750FF10776080318760AF207BA
:10041C007D10FA031F307A05031DED297B1B7D1C13
:10042C00362A0310F00DF10DF20DA00D7408F00238
:10043C007508031C750FF1027608031C760FF20287
:10044C00760D20040139FD070318FC0A0319F80A7C
:10045C00031D362AF80CFC0CFD0CF30A0319462A72
:10046C00FA1FF8137808F2007C08F1007D08F00000
:10047C0000304B2A0130ED204B2A02304D204B2A04
:0E048C00043058204B2A0830412000000800A0
:10049A0083120313FA017308031D7A147708031DE4
:1004AA00FA147A080319992A033A0319642A7A185A
:1004BA00612AF61F972A952AF21F952A972A720807
:1004CA008039FA00F21376088039F6137A0603198E
:1004DA00722A7A080319952A972A77087302031948
:1004EA00792A031C8D2A912A760872020319802A16
:1004FA00031C8D2A912A750871020319872A031C85
:10050A008D2A912A740870020319992A0318912ACC
:10051A00FA080319972A952AFA080319952A972A95
:10052A000314080003100800031403150800080048
:10053A0083120313FB017308031D77080319F42AB6
:10054A0072087606FA007708F3077E30031CB12A90
:10055A00F3020318F72AB42AF302031CFA2A7208D0
:10056A00F8007108FC007008FD00F817F617031070
:10057A00F201F101F0011830A0007D1CCE2A7408A6
:10058A00F00775080318750FF10776080318760F38
:10059A00F207F20CF10CF00CF80CFC0CFD0C031039
:1005AA00A00BC22AF21BDE2AF80DF00DF10DF20D96
:1005BA00F3037B1B701CF02AF81FF02AF00A0319B8
:1005CA00F10A0319F20A031DF02AF20CF10CF00CDD
:1005DA00F30A0319F72AFA1FF2130030FC2A013032
:1005EA004D20FC2A02305820FC2A04304120000009
:0205FA000800F7
:1005FC00831203173108F4003208F5003308F600B3
:10060C003408F7002D08F0002E08F1002F08F20036
:10061C003008F3004D22013003180030F000700850
:10062C0003191E2B0317C101C201C301C401082CFD
:10063C0003173508F4003608F5003708F6003808BB
:10064C00F7002D08F0002E08F1002F08F2003008FA
:10065C00F3004D22013003180030F000700803192C
:10066C007F2B03173108F4003208F5003308F6002D
:10067C003408F7002D08F0002E08F1002F08F200C6
:10068C003008F300902170080317C5007108C600EC
:10069C007208C7007308C8003108F4003208F5006E
:1006AC003308F6003408F7003508F0003608F1007E
:1006BC003708F2003808F30090217008F400710834
:1006CC00F5007208F6007308F70003174508F000F0
:1006DC004608F1004708F2004808F300962170081C
:1006EC000317C1007108C2007208C3007308C4006C
:1006FC00082C03173908F4003A08F5003B08F600FB
:10070C003C08F7002D08F0002E08F1002F08F2002D
:10071C003008F3004D22013003180030F00070084F
:10072C000319A22B00300317C1000030C2000030A7
:10073C00C3007F30C400082C03173D08F4003E08AA
:10074C00F5003F08F6004008F7002D08F0002E08D1
:10075C00F1002F08F2003008F3004D22013003188D
:10076C000030F00070080319032C03172D08F40057
:10077C002E08F5002F08F6003008F7003D08F000B1
:10078C003E08F1003F08F2004008F3009021700889
:10079C000317C5007108C6007208C7007308C800AB
:1007AC003908F4003A08F5003B08F6003C08F7005D
:1007BC003D08F0003E08F1003F08F2004008F3004D
:1007CC0090217008F4007108F5007208F6007308A7
:1007DC00F70003174508F0004608F1004708F2003F
:1007EC004808F300962170080317C1007108C20075
:1007FC007208C3007308C400082C0317C101C2019E
:10080C00C301C4014108F0004208F1004308F200A2
:06081C004408F30008008F
:100822007B14FB1F1C2CF201FA1FFF30F200F100B7
:0A083200F000FA0DF20CFF30080090
:10083C0083120313FB01FA01F9018030F800F10C6B
:10084C00F00C031C322C7408F90775080318750F8B
:10085C00FA070318FB0A0310F01F3A2C7408FA0766
:10086C0075080318750FFB07FB0CFA0CF90CF80C48
:10087C00031C252C7B08F3007A08F2007908F100A0
:06088C007808F0000800EE
:0C0892008312031395011712971208003F
:0E089E008312031715088A0014088200080050
:1008AC00831603138710831212150C309D04080055
:1008BC00831603131208013EF000F1010318F10A2C
:1008CC00831203172508F400F5011E240630F200EC
:1008DC007008F4007108F500720803197A2CF50CF5
:1008EC00F40CF513FF3E732C0430F1007408F00087
:1008FC0071080319852CF00D7010FF3E7F2C3030E1
:10090C007005F3007408F0007508F100F10CF00CA0
:10091C00F113F10CF00CF11370089B000F309D05D6
:06092C0073089D040800A1
:100932008312031373087706031DAC2C7208760624
:10094200031DAC2C71087506031DAC2C70087406CF
:0C09520003190315080003110800080039
:10095E00710DF80DF90D7408F8027508031C750F6A
:10096E00F902F00DF10D0F30FC00710DF80DF90DBF
:10097E007408701CC82CF8027508031C750FF90258
:10098E00CD2CF80775080318750FF907F00DF10D4A
:10099E00FC0BBC2C7018D92C7408F80775080318BA
:0809AE00750FF90700000800B5
:1009B600831603130711831212150C3097040800CF
:1009C600831203172508F2007208F100F20A2608BE
:1009D600F000A60A700884000008F0007108840080
:1009E600700880007108840000080319FB2CE72CAE
:0609F6002508F0000800D6
:1009FC0083120313FD01F801700803190034740607
:100A0C00FA00FA1BFD09FB01F41F0E2DF409F40A80
:100A1C00F01F122DF009F00A70087404FA00FA1B8A
:100A2C00362D7408F802F00D700DF80D7408F807E7
:100A3C00F00D0630FC00700DF80D74087018F802FB
:100A4C00701CF807F00DFC0B212D701CF8077B189F
:100A5C00442DFD1F0034F009F00AF809F80A00349F
:100A6C00F41F412DF01B3E2D7008F800F0012F2DC6
:100A7C00F001F00A0034F009FB0A172DF80A74088B
:100A8C007802031D2F2DF801F00AF01F2F2DFF34D3
:020A9C00080050
:100A9E00831203137008F8007108F000F101F201DF
:100AAE00F301FB01FC019630F300FA01F01F652DF6
:100ABE00F809F009F80A0319F00AFA177008F1009C
:0C0ACE007808F000F801F201BE200800DA
:100ADA00831603139818732D00006D2D83120317C4
:080AEA00250803139900080020
:100AF20083120313FB0173080319B62D7208FA005F
:100B0200F2178E30F302F31FB92DF309F30A0830FE
:100B12007302031C9C2DF300F10D7208F100F20127
:100B220008307302031C9C2DF300F10DF1017308D0
:100B3200031D0310A42D73080319A42D0310F20C36
:100B4200F10CF30B9F2D7B1B711CAE2D031CAE2DE4
:100B5200F10A0319F20AF21BC52DFA1FC82DF20978
:100B6200F109F10A0319F20AC82DF201F101C82DA7
:100B72007B14FB1FCB2DF201FA1FCB2DFF30F200AD
:100B8200F100FA0DF20CCB2D0130FC00CD2D00301E
:100B9200FC00CD2DFF30FC00FC080319D12D1124DF
:0A0BA2007108F0007208F10008006D
:0C0BAC00831203139B011D129D12080010
:100BB800831603131208013EF000F1010318F10A2D
:100BC800831203172508F400F5011E240630F200ED
:100BD8007008F4007108F50072080319F82DF50C77
:100BE800F40CF513FF3EF12D0430F1007408F00009
:100BF80071080319032EF00D7010FF3EFD2D3030E3
:100C08007005F3007408F0007508F100F10CF00CA1
:100C1800F113F10CF00CF113700895000F309705E3
:060C2800730897040800A8
:100C2E008030831203172606F000803028067002EB
:100C3E00031D232E27082502031C2A2E2508F0004B
:100C4E002608F1002E2E2708F0002808F1000800D3
:100C5E00831203138814081403171808A500DC2543
:080C6E000317A5015E24080034
:100C7600831203138814081403171808A5005E24AA
:080C86000317A501DC2508009D
:100C8E0083120313F401F501F601F7010317180897
:100C9E00F0001908F1001A08F2001B08F3004D22AB
:100CAE00013003180030F000700803196C2E00306C
:100CBE0003171806F00000301906F10080301A06EE
:100CCE00F20000301B06F300752E03171808F00013
:0E0CDE001908F1001A08F2001B08F3000800C4
:100CEC00831203137008F8007108F000F101F2018F
:100CFC00F301FB01FC019630F300FA017008F100DE
:0C0D0C007808F000F801F201BE20080099
:100D180083120313F401F501F601F701031718080C
:100D2800F0001908F1001A08F2001B08F3009924D2
:100D38000130031D0030F00070080319A82E0317B6
:100D4800980199019A019B0103170030F4000030C3
:100D5800F5007030F6008330F7001808F000190825
:100D6800F1001A08F2001B08F3004D2201300318A5
:100D78000030F00070080319042F03171808F40056
:100D88001908F5001A08F6001B08F700F001F10130
:100D9800F201F3014D22013003180030F000700811
:100DA8000319042F03171808F0001908F1001A088E
:100DB800F2001B08F3000030F4000030F5000030AA
:100DC800F6008030F700F0200030F4000030F50025
:100DD8000030F6007E30F7009D2203171808F40053
:100DE8001908F5001A08F6001B08F700F02070082B
:100DF800031798007108990072089A0073089B00FD
:100E080003170030F4000030F5007030F60083302E
:100E1800F7001808F0001908F1001A08F2001B087A
:100E2800F3004D220130031C0030F0007008031954
:100E3800512F0030F4000030F5003830F6008430CF
:100E4800F70003171808F0001908F1001A08F20053
:100E58001B08F3004D22013003180030F000700821
:100E68000319512F03171808F0001908F1001A0880
:100E7800F2001B08F3000030F4000030F5004030A9
:100E8800F6008030F700F02070080317980071080A
:100E9800990072089A0073089B0003170030F40049
:100EA8000030F5003830F6008430F7001808F000FC
:100EB8001908F1001A08F2001B08F3004D2201304E
:100EC800031C0030F00070080319732F003003175B
:100ED80098000030990048309A0084309B0003172E
:100EE8001808F0001908F1001A08F2001B08F300AE
:020EF8000800F0
:100EFA00831203137408003A031D8C2F7508003AF5
:100F0A00031D8C2FFF30F0007F30F100E52F831294
:100F1A000313FD01F901F801710870040319003483
:100F2A0071087506FA00FA1BFD09FB01F51FA22FCD
:100F3A00F409F509F40A0319F50AF11FA92FF009B2
:100F4A00F109F00A0319F10A71087504FA00FA1B8B
:100F5A00BE2FAF247B18D12FFD1F0034F009F109F1
:100F6A00F00A0319F10AF809F909F80A0319F90A42
:100F7A000034F51FCD2FF11BC92F7108F900700835
:100F8A00F800F101F001B12FF101F001F00A00348B
:100F9A00F109F009FB0AAE2FF80A0319F90A7408D5
:100FAA007802031DB12F75087902031DB12FF901CB
:100FBA00F801F00A0319F10AF11FB12F0000FF34FA
:020FCA0008001D
:100FCC0083120317A501DC250317A5015E24080075
:100FDC008316031398169030831298008316871784
:100FEC00071383128C1EFD2F1A08F000F72F080030
:10100000831203132608A2002708A3002808A400BF
:101010002908A50003172508F4002608F50027086D
:10102000F6002808F70003133A08F0003B08F10027
:101030003C08F2003D08F3008A1190218A157008DF
:10104000A6007108A7007208A8007308A90070081C
:10105000BE007108BF007208C0007308C1007008AC
:10106000F4007108F5007208F6007308F70000300C
:10107000F0000030F1000030F2007F30F3008A1100
:101080004D228A15013003180030F0007008031952
:1010900051280030BE000030BF000030C0007F305B
:1010A000C1000030F4000030F5008030F6007F30E1
:1010B000F7003E08F0003F08F1004008F200410848
:1010C000F3008A114D228A15013003180030F00018
:1010D0007008031973280030BE000030BF00803054
:1010E000C0007F30C1002208F4002308F500240866
:1010F000F6002508F7002608F0002708F100280868
:10110000F2002908F3008A1190218A15700803174C
:10111000A9007108AA007208AB007308AC009A30ED
:10112000F0009930F1001930F2007C30F300031325
:101130003608F4003708F5003808F6003908F700DB
:101140008A119D228A157008F4007108F500720852
:10115000F6007308F70003172908F0002A08F100C9
:101160002B08F2002C08F3008A1196218A157008CA
:10117000B2007108B3007208B4007308B5007008BB
:10118000F4007108F5007208F6007308F7000030EB
:10119000F0000030F1000030F2007F30F3008A11DF
:1011A0004D228A15013003180030F0007008031931
:1011B000E1280030B2000030B3000030B4007F30CE
:1011C000B5000030F4000030F5008030F6007F30CC
:1011D000F7003208F0003308F1003408F200350857
:1011E000F3008A114D228A15013003180030F000F7
:1011F0007008031903290030B2000030B3008030BA
:10120000B4007F30B5003E080317AD0003133F085C
:101210000317AE00031340080317AF000313410880
:101220000317B0000030B1000030B2008030B300CE
:101230008030B4000030B5000030B6008030B70018
:101240007F30B8000030031366060317B900003082
:10125000031367060317BA008030031368060317E9
:10126000BB000030031369060317BC0000300313F2
:101270006A060317BD00003003136B060317BE0098
:10128000803003136C060317BF00003003136D0694
:101290000317C0008A11FE228A15700883160313F3
:1012A000A4007108A5007208A6007308A7008312A5
:1012B0003E080317AD0003133F080317AE000313E6
:1012C00040080317AF00031341080317B0000030B4
:1012D000031366060317B1000030031367060317F4
:1012E000B2008030031368060317B3000030031305
:1012F00069060317B400003003136A060317B5002C
:10130000003003136B060317B600803003136C061E
:101310000317B700003003136D060317B800003041
:1013200003136A060317B900003003136B06031793
:10133000BA00803003136C060317BB0000300313A0
:101340006D060317BC00BD01BE01BF01C0018A11BB
:10135000FE228A15700883160313A8007108A900DD
:101360007208AA007308AB0083123E080317AD0091
:1013700003133F080317AE00031340080317AF0021
:10138000031341080317B000003003136A06031764
:10139000B100003003136B060317B2008030031353
:1013A0006C060317B300003003136D060317B40077
:1013B000B501B601B701B801B901BA01BB01BC0161
:1013C00003136A080317BD0003136B080317BE005D
:1013D00003136C080317BF0003136D080317C00045
:1013E0008A11FE228A15700883160313E80071081B
:1013F000E9007208EA007308EB0083123E08031745
:10140000AD0003133F080317AE0003134008031792
:10141000AF00031341080317B000B101B201B301DB
:10142000B40103136A080317B50003136B0803170D
:10143000B60003136C080317B70003136D080317F6
:10144000B80003136A080317B90003136B080317E6
:10145000BA0003136C080317BB0003136D080317CE
:10146000BC00031366080317BD00031367080317C6
:10147000BE00031368080317BF00031369080317AE
:10148000C0008A11FE228A15700883160313CC004F
:101490007108CD007208CE007308CF0083123E0899
:1014A0000317AD0003133F080317AE0003134008F2
:1014B0000317AF00031341080317B00003136A08B2
:1014C0000317B10003136B080317B20003136C0872
:1014D0000317B30003136D080317B4000313660862
:1014E0000317B500031367080317B6000313680852
:1014F0000317B700031369080317B8000030B900D9
:101500000030BA000030BB007F30BC000030BD00AE
:101510000030BE000030BF008030C0008A11FE22C3
:101520008A15700883160313EC007108ED00720829
:10153000EE007308EF00831232080317AD000313A7
:1015400033080317AE00031334080317AF00031367
:1015500035080317B0000030B1000030B200803011
:10156000B3008030B4000030B5000030B6008030E9
:10157000B7007F30B800003003135E060317B900D0
:10158000003003135F060317BA00803003136006B0
:101590000317BB000030031361060317BC000030C3
:1015A000031362060317BD0000300313630603171D
:1015B000BE008030031364060317BF00003003131E
:1015C00065060317C0008A11FE228A15700883166B
:1015D0000313A0007108A1007208A2007308A30001
:1015E000831232080317AD00031333080317AE004C
:1015F000031334080317AF00031335080317B000B3
:10160000003003135E060317B100003003135F06BA
:101610000317B2008030031360060317B3000030D5
:10162000031361060317B4000030031362060317A7
:10163000B5000030031363060317B60080300313B0
:1016400064060317B7000030031365060317B800DC
:101650000030031362060317B9000030031363065A
:101660000317BA008030031364060317BB00003071
:10167000031365060317BC00BD01BE01BF01C00115
:101680008A11FE228A15700883160313E000710880
:10169000E1007208E2007308E300831232080317C6
:1016A000AD00031333080317AE0003133408031708
:1016B000AF00031335080317B000003003136206B0
:1016C0000317B1000030031363060317B200803024
:1016D000031364060317B3000030031365060317F2
:1016E000B400B501B601B701B801B901BA01BB0137
:1016F000BC01031362080317BD000313630803173B
:10170000BE00031364080317BF0003136508031723
:10171000C0008A11FE228A15700883160313E400A4
:101720007108E5007208E6007308E70083123208CA
:101730000317AD00031333080317AE000313340877
:101740000317AF00031335080317B000B101B2014E
:10175000B301B401031362080317B5000313630850
:101760000317B600031364080317B70003136508D3
:101770000317B800031362080317B90003136308C3
:101780000317BA00031364080317BB0003136508AB
:101790000317BC0003135E080317BD0003135F08A3
:1017A0000317BE00031360080317BF00031361088B
:1017B0000317C0008A11FE228A15700883160313CE
:1017C000D8007108D9007208DA007308DB008312B0
:1017D00032080317AD00031333080317AE000313D9
:1017E00034080317AF00031335080317B0000313C1
:1017F00062080317B100031363080317B200031351
:1018000064080317B300031365080317B400031338
:101810005E080317B50003135F080317B600031330
:1018200060080317B700031361080317B8000030FE
:10183000B9000030BA000030BB007F30BC0000307F
:10184000BD000030BE000030BF008030C0008A11F3
:10185000FE228A15700883160313D4007108D50080
:0A1860007208D6007308D7000800D4
:0E186A000030831203138C1A0130F0000800C6
:101878008A114F248A150A128000840A940A0319CF
:0A188800950AF003031D3C2C080034
:101892008312031312149210F930831692008A11E4
:1018A20049248A158A11DB248A1512149210F93000
:1018B200831692008A11D6258A158A1156248A1512
:0218C20008001C
:1018C400831203179A011808840000089900190864
:1018D400003A03197A2C1908A5008A116D258A1576
:1018E40003179A0A1A081807840000089900692C3B
:0218F4000800EA
:1018F600831203131A08F100981C832C1812181669
:061906007108F00008006A
:10190C0083120317A301A40118089F001908A00053
:10191C001A08A1001B08A2002208FF3A031DA02CE4
:10192C002108FF3A031DA02C2008FF3A031DA02C10
:10193C001F08FF3A031DAC2C1C08A5005630A6004E
:10194C008A11E3248A150330F0009D2E01309D008E
:10195C00A11FBB2C80302106F0007008A1009D0A4D
:10196C001C0884002D3080009C0A0030F0002206F8
:10197C00031DCA2C70082106031DCA2C70082006F2
:10198C00031DCA2C1F08003A031DD52C1C08A500EA
:10199C005A30A6008A11E3248A15F0019D2E2208E4
:1019AC00FF3A031DE32C2108003A031DE32C200809
:1019BC00003A031DE32C1F08003A031DEF2C1C08F2
:1019CC00A5005030A6008A11E3248A151D08F000EA
:1019DC009D2E0030F4000030F5000030F6007F3012
:1019EC00F7001F08F0002008F1002108F20022087F
:1019FC00F3008A114D228A15013003180030F000D3
:101A0C0070080319282D03171F08F0002008F10097
:101A1C002108F2002208F3000030F4000030F50039
:101A2C002030F6008230F7008A119D228A1570084A
:101A3C0003179F007108A0007208A1007308A20090
:101A4C00A403EF2C03170030F4000030F500203015
:101A5C00F6008230F7001F08F0002008F100210882
:101A6C00F2002208F3008A114D228A150130031C62
:101A7C000030F00070080319622D03171F08F000E6
:101A8C002008F1002108F2002208F300CD30F40008
:101A9C00CC30F5004C30F6007B30F7008A119D22DB
:101AAC008A15700803179F007108A0007208A10026
:101ABC007308A200A40A282D0317FF301F05F80095
:101ACC00FF302005F9007F302105FA000030220597
:101ADC00FB007808F4007908F5007A08F6007B081A
:101AEC00F700F40DF50DF60DF70D741000301F0511
:101AFC00F00000302005F10000302105F200FF302D
:101B0C002205F30070089F007108A0007208A10064
:101B1C007308A20074081F04F00075082004F1007B
:101B2C0076082104F20077082204F30070089F0065
:101B3C007108A0007208A1007308A2007F30220275
:101B4C00F00070089E000130A2007008F4001F081D
:101B5C00F0002008F1002108F2002208F3007408BC
:101B6C000319BF2DF00DF10DF20DF30D7010FF3EAA
:101B7C00B62D70089F007108A0007208A1007308B0
:101B8C00A2002208303EF0001C088400700880007F
:101B9C009C0A80302406F0008030013A7002031C4D
:101BAC00E02D8030063AF000803024067002031CD1
:101BBC00E02DE72D1C0884002E3080009C0A01309B
:101BCC00A30006309E001E08003A0319452EA20100
:101BDC001F08F0002008F1002108F2002208F30091
:101BEC00F00DF10DF20DF30D7010F00DF10DF20D75
:101BFC00F30D70101F08F00720080318200FF107D1
:101C0C0021080318210FF20722080318220FF307EB
:101C1C0070089F007108A0007208A1007308A20050
:101C2C001F08F0002008F1002108F2002208F30040
:101C3C00F00DF10DF20DF30D701070089F0071088E
:101C4C00A0007208A1007308A2002208303EF00028
:101C5C001C088400700880009C0A2308003A031DAD
:101C6C00432EA4032408003A031D432E1C088400B1
:101C7C002E3080009C0A0130A3009E03E92DFF301A
:101C8C001C0784000008303A031D4E2E9C03452E81
:101C9C00FF301C07840000082E3A031D562E9C03AF
:101CAC002408003A0319992E1C0884006530800022
:101CBC009C0A80302406F0008030003A7002031831
:101CCC006F2E1C0884002D3080009C0A2408003CD8
:101CDC00A40024089E008030093AF00080302406CD
:101CEC0070020318882E0A30F4001E08F0008A11C6
:101CFC00FE248A153030F00703171C088400700886
:101D0C0080009C0A0A30F4001E08F0008A11FE24A0
:101D1C008A157808F0003030F00703171C0884008F
:101D2C00700880009C0A1C0884008001F0010800E7
:101DD800223084004E3083120313F0009E30031724
:0A1DE80094000E3095003C24080022
:10200000831203171808A5001908A6001A08A700CC
:102010001B08A8008A150A1200208A110A166C08EB
:10202000F0006D08F1006E08F2006F08F30054082C
:10203000F4005508F5005608F6005708F7000A1294
:102040009D220A160A1279250A1670080317A500A0
:102050007108A600831603136C08F0006D08F100E8
:102060006E08F2006F08F3005808F4005908F500F4
:102070005A08F6005B08F7000A129D220A160A1297
:1020800079250A1670080317A7007108A8000A121C
:1020900017260A160A124F250A1670080317900011
:1020A0007108910072089200730893000A12792552
:1020B0000A1670080317A5007108A60083160313FB
:1020C0004C08F0004D08F1004E08F2004F08F300F4
:1020D0005408F4005508F5005608F6005708F700B4
:1020E0000A129D220A160A1279250A167008031789
:1020F000A7007108A8000A1217260A160A124F250F
:102100000A16700803179000710891007208920077
:1021100073089300831603136C08F0006D08F10038
:102120006E08F2006F08F3006408F4006508F5001B
:102130006608F6006708F7000A129D220A160A12BE
:1021400079250A1670080317A5007108A6008316E2
:1021500003134C08F0004D08F1004E08F2004F0840
:10216000F3005808F4005908F5005A08F6005B0817
:10217000F7000A129D220A160A1279250A1670081B
:102180000317A7007108A8000A1217260A160A12D8
:102190004F250A1670088316D0007108D100720806
:1021A000D2007308D3000A1279250A1670080317A3
:1021B000A5007108A600831603136808F0006908DB
:1021C000F1006A08F2006B08F3005408F4005508A7
:1021D000F5005608F6005708F7000A129D220A1665
:1021E0000A1279250A1670080317A7007108A800BB
:1021F0000A1217260A160A124F250A1670088316A5
:10220000D0007108D1007208D2007308D3006C08A6
:10221000F0006D08F1006E08F2006F08F30060082E
:10222000F4006108F5006208F6006308F7000A127E
:102230009D220A160A1279250A1670080317A500AE
:102240007108A600831603134C08F0004D08F10036
:102250004E08F2004F08F3006408F4006508F5002A
:102260006608F6006708F7000A129D220A160A128D
:1022700079250A1670080317A7007108A8000A122A
:1022800017260A160A124F250A1670088316DC0054
:102290007108DD007208DE007308DF000A1279257C
:1022A0000A1670080317A5007108A6008316031309
:1022B0006808F0006908F1006A08F2006B08F30092
:1022C0005808F4005908F5005A08F6005B08F700B2
:1022D0000A129D220A160A1279250A167008031797
:1022E000A7007108A8000A1217260A160A124F251D
:1022F0000A1670088316DC007108DD007208DE0023
:102300007308DF000A1279250A1670080317A50062
:102310007108A600831603132808F0002908F100AD
:102320002A08F2002B08F3005408F4005508F500C1
:102330005608F6005708F7000A129D220A160A12DC
:1023400079250A1670080317A7007108A8000A1259
:1023500017260A160A124F250A1670088316DC0083
:102360007108DD007208DE007308DF006C08F00001
:102370006D08F1006E08F2006F08F3002008F40009
:102380002108F5002208F6002308F7000A129D2212
:102390000A160A1279250A1670080317A500710893
:1023A000A600831603134C08F0004D08F1004E08F8
:1023B000F2004F08F3006008F4006108F5006208BD
:1023C000F6006308F7000A129D220A160A12792500
:1023D0000A1670080317A7007108A8000A1217262A
:1023E0000A160A124F250A1670088316AC007108E7
:1023F000AD007208AE007308AF000A1279250A1604
:1024000070080317A5007108A60083160313680857
:10241000F0006908F1006A08F2006B08F300640834
:10242000F4006508F5006608F6006708F7000A1270
:102430009D220A160A1279250A1670080317A700AA
:102440007108A8000A1217260A160A124F250A1642
:1024500070088316AC007108AD007208AE007308F6
:10246000AF000A1279250A1670080317A500710833
:10247000A600831603132808F0002908F1002A0893
:10248000F2002B08F3005808F4005908F5005A0828
:10249000F6005B08F7000A129D220A160A12792537
:1024A0000A1670080317A7007108A8000A12172659
:1024B0000A160A124F250A1670088316AC00710816
:1024C000AD007208AE007308AF000A1279250A1633
:1024D00070080317A5007108A600831603132408CB
:1024E000F0002508F1002608F2002708F300540840
:1024F000F4005508F5005608F6005708F7000A12D0
:102500009D220A160A1279250A1670080317A700D9
:102510007108A8000A1217260A160A124F250A1671
:1025200070088316AC007108AD007208AE00730825
:10253000AF004C08F0004D08F1004E08F2004F08C3
:10254000F3002008F4002108F5002208F600230813
:10255000F7000A129D220A160A1279250A16700837
:102560000317A5007108A600831603136808F0007E
:102570006908F1006A08F2006B08F3006008F400D3
:102580006108F5006208F6006308F7000A129D2250
:102590000A160A1279250A1670080317A70071088F
:1025A000A8000A1217260A160A124F250A167008E2
:1025B0008316B4007108B5007208B6007308B7003E
:1025C0000A1279250A1670080317A5007108A600DB
:1025D000831603132808F0002908F1002A08F200E6
:1025E0002B08F3006408F4006508F5006608F6009F
:1025F0006708F7000A129D220A160A1279250A16A0
:1026000070080317A7007108A8000A1217260A16F7
:102610000A124F250A1670088316B4007108B50017
:102620007208B6007308B7000A1279250A167008F6
:102630000317A5007108A600831603132408F000F1
:102640002508F1002608F2002708F3005808F400D6
:102650005908F5005A08F6005B08F7000A129D2297
:102660000A160A1279250A1670080317A7007108BE
:10267000A8000A1217260A160A124F250A16700811
:102680008316B4007108B5007208B6007308B7006D
:102690006808F0006908F1006A08F2006B08F300AE
:1026A0002008F4002108F5002208F6002308F700AE
:1026B0000A129D220A160A1279250A1670080317B3
:1026C000A5007108A600831603132808F000290846
:1026D000F1002A08F2002B08F3006008F4006108FA
:1026E000F5006208F6006308F7000A129D220A1638
:1026F0000A1279250A1670080317A7007108A800A6
:102700000A1217260A160A124F250A16700883168F
:10271000B8007108B9007208BA007308BB000A1249
:1027200079250A1670080317A5007108A6008316FC
:1027300003132408F0002508F1002608F2002708FA
:10274000F3006408F4006508F5006608F600670801
:10275000F7000A129D220A160A1279250A16700835
:102760000317A7007108A8000A1217260A160A12F2
:102770004F250A1670088316B8007108B900720850
:10278000BA007308BB002808F0002908F1002A08E5
:10279000F2002B08F3002008F4002108F5002208BD
:1027A000F6002308F7000A129D220A160A1279255C
:1027B0000A1670080317A5007108A60083160313F4
:1027C0002408F0002508F1002608F2002708F3008D
:1027D0006008F4006108F5006208F6006308F7007D
:1027E0000A129D220A160A1279250A167008031782
:1027F000A7007108A8000A1217260A160A124F2508
:102800000A1670088316B0007108B1007208B20091
:102810007308B3000A1279250A1670080317A50079
:102820007108A600831603132408F0002508F100A0
:102830002608F2002708F3002008F4002108F5001C
:102840002208F6002308F7000A129D220A160A122F
:1028500079250A1670080317A7007108A8000A1244
:1028600017260A160A124F250A1670080317A00029
:102870007108A1007208A2007308A3002008831643
:102880000313B00083120317210883160313B1004A
:1028900083120317220883160313B200831203174F
:1028A000230883160313B300003083124206F0009E
:1028B00000304306F10080304406F2000030450647
:1028C000F30003171008F4001108F5001208F600D1
:1028D0001308F7000A129D220A16700803179C00BD
:1028E00071089D0072089E0073089F00003003135A
:1028F0002A06F00000302B06F10080302C06F20092
:1029000000302D06F30083165008F4005108F5003E
:102910005208F6005308F7000A129D220A16031700
:102920001C08F4001D08F5001E08F6001F08F7003B
:102930000A12F0200A16700803179C0071089D0007
:1029400072089E0073089F00003003132E06F000EB
:1029500000302F06F10080303006F20000303106E2
:10296000F30083165C08F4005D08F5005E08F600CD
:102970005F08F7000A129D220A1603171C08F400CC
:102980001D08F5001E08F6001F08F7000A12F020C7
:102990000A16700803179C0071089D0072089E00BB
:1029A00073089F00831603133408F0003508F10004
:1029B0003608F2003708F30083122E08F4002F08BF
:1029C000F5003008F6003108F7000A129D220A16B9
:1029D00003171C08F4001D08F5001E08F6001F0868
:1029E000F7000A12F0200A16700803179C007108FD
:1029F0009D0072089E0073089F0083160313380819
:102A0000F0003908F1003A08F2003B08F3008312A5
:102A10002A08F4002B08F5002C08F6002D08F70012
:102A20000A129D220A1603171C08F4001D08F5005F
:102A30001E08F6001F08F7000A12F0200A16700898
:102A400003179C0071089D0072089E0073089F0088
:102A50002008F0002108F1002208F2002308F3000A
:102A600003134208F4004308F5004408F600450843
:102A7000F7000A129D220A1603171C08F4001D080D
:102A8000F5001E08F6001F08F7000A12F0200A16CB
:102A9000700803179C0071089D0072089E0073085F
:102AA0009F001008F0001108F1001208F20013084E
:102AB000F300831603135008F4005108F500520880
:102AC000F6005308F7000A12F0200A1683165C0875
:102AD000F4005D08F5005E08F6005F08F7000A12D2
:102AE000F0200A1683162C08F4002D08F5002E0895
:102AF000F6002F08F7000A12F0200A168316340891
:102B0000F4003508F5003608F6003708F7000A1219
:102B1000F0200A1683163808F4003908F5003A0840
:102B2000F6003B08F7000A12F0200A1603172008E7
:102B3000F4002108F5002208F6002308F7000A1225
:102B4000F0200A167008F4007108F5007208F6000B
:102B50007308F70003171C08F0001D08F1001E0899
:102B6000F2001F08F3000A1296210A167008C60028
:102B70007108C7007208C8007308C90000307006E9
:102B8000F40000307106F50080307206F600003067
:102B90007306F7007408C6007508C7007608C800F9
:102BA0007708C9000030F0000030F1000030F2007A
:102BB0007F30F3000A124D220A160130031800304C
:102BC000F00070080319EC2D0030C6000030C7007B
:102BD0000030C8007F30C9000030F4000030F5003C
:102BE0008030F6007F30F7004608F0004708F1001B
:102BF0004808F2004908F3000A124D220A16013073
:102C000003180030F000700803190E2E0030C600C3
:0E2C10000030C7008030C8007F30C9000800C7
:103000000A12EC260A160A1249240A168316061416
:1030100007168716881008108312881408140730C2
:1030200083169F0486108312861090161016813026
:103030008316990018158A110A12EE278A150A16A6
:10304000831601170B168B170A1235240A167008FF
:1030500003196D280A127B240A1670088316C9000A
:103060007008831203179600970116080313EE00E9
:10307000031717080313EF006430F4000030F50065
:1030800003171608F0001708F1008A110A127D27AD
:103090008A150A167008DC007108DD006430F4003F
:1030A0000030F50003171608F0001708F1008A1128
:1030B0000A127D278A150A167808F0007908F100AF
:1030C0008A110A124F258A150A167008BA0071086B
:1030D000BB007208BC007308BD0000305D06031D14
:1030E000732801305C0603197E2800305D06031D3D
:1030F0007B2802305C0603197E28FC2B8614823064
:10310000FC00DD30FD00FD0B8328FC0B8328000054
:10311000000086104F08003C031D90284E08643CB8
:103120000318BE2861304F02031D9828A8304E02B4
:103130000318BE2805304E02F0000030031C013E8B
:103140004F02F1008A110A1276268A150A160030FB
:10315000F4000030F5006830F6008430F7008A1182
:103160000A1296218A150A1670088316C50071087E
:10317000C6007208C7007308C800C728831600304D
:10318000C5000030C6004830C7008430C80045087C
:10319000831203179800831603134608831203173C
:1031A0009900831603134708831203179A008316A6
:1031B00003134808831203179B008A110A128C26F6
:1031C0008A150A16700883160313C5007108C60015
:1031D0007208C7007308C8007008831203179800AC
:1031E0007108990072089A0073089B008A110020E8
:1031F0008A15831645088312031798008316031354
:103200004608831203179900831603134708831295
:1032100003179A00831603134808831203179B00B1
:10322000BC309C000A1286240A1603133A08F400E4
:103230003B08F5003C08F6003D08F70083164508FA
:10324000F0004608F1004708F2004808F3008A1130
:103250000A1290218A150A1670080317980071083F
:10326000990072089A0073089B008A110A12472677
:103270008A150A160030F4000030F5006030F600C0
:103280008030F7008A110A124D228A150A16013081
:1032900003180030F00070080319382A3A08F400C7
:1032A0003B08F5003C08F6003D08F700831645088A
:1032B000F0004608F1004708F2004808F3008A11C0
:1032C0000A1290218A150A167008031798007108CF
:1032D000990072089A0073089B008A110A12472607
:1032E0008A150A167008F4007108F5007208F600D5
:1032F0007308F7000030F0000030F1000030F200F9
:103300007E30F3008A110A124D228A150A16013006
:1033100003180030F00070080319382AF401F50191
:10332000F601F7014608F0004708F1004808F200EE
:103330004908F3008A110A124D228A150A16013033
:1033400003180030F00070080319E329460803173A
:10335000980003134708031799000313480803173D
:103360009A000313490803179B008A110A12472683
:103370008A150A160A30F400D730F5002330F6001B
:103380007B30F7008A110A12F0208A150A160030E5
:10339000F4000030F5004830F6008530F7008A115F
:1033A0000A129D228A150A168A110A1279258A158F
:1033B0000A16700803179800710899008A110A12FA
:1033C0003B268A150A16F401F501F601F7014608B5
:1033D000F0004708F1004808F2004908F3008A119C
:1033E0000A124D228A150A160130031C0030F00023
:1033F00070080319382A4608031798000313470872
:10340000031799000313480803179A000313490888
:1034100003179B008A110A1247268A150A160A30DA
:10342000F400D730F5002330F6007B30F7008A1126
:103430000A12F0208A150A160030F4000030F50058
:103440004830F6008530F7008A110A129D228A154D
:103450000A168A110A1279258A150A1670080317A6
:103460009800710899008A110A122F268A150A16E7
:10347000F401F501F601F70183164508F00046084E
:10348000F1004708F2004808F3008A110A12992453
:103490008A150A160130031D0030F0007008031D64
:1034A000A72A0030F4000030F5004830F6008430E0
:1034B000F70083164508F0004608F1004708F200BF
:1034C0004808F3008A110A1299248A150A16013055
:1034D000031D0030F0007008031DA72A3A08F4000D
:1034E0003B08F5003C08F6003D08F7008316450848
:1034F000F0004608F1004708F2004808F3008A117E
:103500000A1290218A150A1670080317980071088C
:10351000990072089A0073089B008A110A124726C4
:103520008A150A160030F4000030F5000030F6006D
:103530007E30F7008A110A124D228A150A160130D0
:1035400003180030F0007008031DA72AB12A8A1161
:103550000A12E6278A150A16C601C701C801C90161
:10356000C22BF401F501F601F7014608F000470807
:10357000F1004808F2004908F3008A110A124D22AE
:103580008A150A16013003180030F000700803197C
:103590003A2B3A08F4003B08F5003C08F6003D08D9
:1035A000F70083164508F0004608F1004708F200CE
:1035B0004808F3008A110A1290218A150A16700829
:1035C000031798007108990072089A0073089B000D
:1035D0008A110A1247268A150A167008F400710823
:1035E000F5007208F6007308F7000030F0000030B4
:1035F000F1006030F2008030F3008A110A124D228F
:103600008A150A16013003180030F00070080319FB
:103610003A2B46080317980003134708031799002D
:103620000313480803179A000313490803179B0064
:103630008A110A1247268A150A160030F400003053
:10364000F5004830F6008530F7008A110A129D22F5
:103650008A150A168A110A1279258A150A1670081F
:1036600003179800710899008A110A123B268A15DF
:103670000A16C22BF401F501F601F7014608F00025
:103680004708F1004808F2004908F3008A110A12BD
:103690004D228A150A160130031C0030F000700814
:1036A0000319C22B3A08F4003B08F5003C08F60069
:1036B0003D08F70083164508F0004608F10047086A
:1036C000F2004808F3008A110A1290218A150A169E
:1036D0007008031798007108990072089A0073081F
:1036E0009B008A110A1247268A150A167008F400F0
:1036F0007108F5007208F6007308F7000030F0005A
:103700000030F1006030F2008030F3008A110A12BC
:103710004D228A150A16013003180030F000700897
:103720000319C22B46080317980003134708031711
:1037300099000313480803179A0003134908031755
:103740009B008A110A1247268A150A160030F400D7
:103750000030F5004830F6008530F7008A110A1273
:103760009D228A150A168A110A1279258A150A16C7
:10377000700803179800710899008A110A122F2601
:103780008A150A164A08F0004B08F1004C08F200AE
:103790004D08F300F00A0319F10A0319F20A03199C
:1037A000F30A7008CA007108CB007208CC007308D5
:1037B000CD000030F0004D06031DE82B70084C06CC
:1037C000031DE82B70084B06031DE82B4A08143A2A
:1037D000031DFB2BBC30031798000A1262240A1643
:1037E0000A30A5008A110A126D258A150A16CA0127
:1037F000CB01CC01CD01012C8A110A12E6278A15D2
:063800000A162428022C28
:081D3C000034003400340034CF
:081D44000034003400340034C7
:081D4C009A34993419347E34F5
:081D54009A34993419347D34EE
:081D5C000034003400340034AF
:081D64000034003400347F3428
:081D6C000034003470348334AC
:081D7400003400340034003497
:081D7C00CD34CC344C347E342C
:081D8400003400340034003487
:081D8C0000340034003400347F
:041D940000340034E3
:081D980049344E344634003496
:041DA00000340034D7
:081DA4004E3461344E3400346A
:041DAC00303400349B
:041DB00000340034C7
:081DB4009A34993419347E348D
:081DBC009A34993419347D3486
:081DC4009A34993419347E347D
:081DCC009A34993419347D3476
:041DD40000340034A3
:02400E004A2F37
:00000001FF
